:020000040000FA
:0400000007EF00F016
:100008006B825DED01F0B8EF01F045C0D9FF46C045
:10001800DAFFDF504B6E8BEF00F0815001098A6EDA
:100028008150FD0B8A6E8150FB0B8A6E4B2A45C0AE
:10003800D9FF46C0DAFF4BC0DFFFB8EF00F08150B0
:10004800FE0B8A6E815002098A6E17EF00F081500C
:1000580001098A6E815002098A6E17EF00F08150FB
:10006800FE0B8A6E8150FD0B8A6E815004098A6EE0
:100078001AEF00F0815001098A6E8150FD0B8A6EDB
:10008800815004098A6E1AEF00F08150FE0B8A6EC7
:10009800815002098A6E815004098A6E1AEF00F0B5
:1000A800815001098A6E815002098A6E81500409C3
:1000B8008A6E1AEF00F08150FE0B8A6E8150FD0B9C
:1000C8008A6E8150FB0B8A6E47C0D9FF48C0DAFFA1
:1000D800DF50D8B472EF00F074EF00F07BEF00F05F
:1000E80047C0D9FF48C0DAFFDF0681EF00F047C0FC
:1000F800D9FF48C0DAFF070EDF6E45C0D9FF46C0FA
:10010800DAFF000EDF6EB8EF00F089EF00F04B5019
:10011800496E4A6A4A50000AD8B495EF00F089EF50
:1001280000F04950000AD8B411EF00F0010AD8B421
:1001380023EF00F0030AD8B42BEF00F0010AD8B47B
:1001480033EF00F0070AD8B43EEF00F0010AD8B444
:1001580049EF00F0030AD8B454EF00F0010AD8B40C
:100168005FEF00F089EF00F01200000E5A6E010EEA
:10017800586E000E5A6E000E596E070E5964C7EF7E
:1001880000F0C9EF00F0CBEF00F012EF01F059C01A
:1001980055F0010E566E552AD4EF00F0D890563619
:1001A800552ED2EF00F05650586E5A505324D96E3F
:1001B800000E5420DA6EDF5058140009D8B4E7EF67
:1001C80000F0E9EF00F0FDEF00F05A50080D51C0C3
:1001D80055F052C056F0F3505526F4505622595057
:1001E8005524D96E000E5620DA6E010EDF6E0FEF21
:1001F80001F05A50080D51C055F052C056F0F35056
:100208005526F450562259505524D96E000E5620C2
:10021800DA6E000EDF6E592AC1EF00F05A2A070E77
:100228005A6419EF01F01BEF01F0BFEF00F0120064
:1002380047C0D9FF48C0DAFFDF504A6E4A50080D60
:1002480045C04BF046C04CF0F3504B26F4504C22BE
:1002580049504B24D96E000E4C20DA6EDF50D8B4CA
:1002680038EF01F03AEF01F04DEF01F0825020092C
:100278008B6E825008098B6E00D08250F70B8B6E04
:1002880080502009896E00D08050DF0B896E5CEFAA
:1002980001F08250DF0B8B6E825008098B6E00D004
:1002A8008250F70B8B6E80502009896E47EF01F062
:1002B80012000600D9CF4DF0DACF4EF0F3CF4FF051
:1002C800F4CF50F0F2A46BEF01F06DEF01F08CEF7A
:1002D80001F0F29ED59E440E456E000E466E6A0EE3
:1002E800476E000E486E09EC00F0040E456E000ED5
:1002F800466E440E476E000E486E6AC049F01CEC0C
:1003080001F0F60ED76E3C0ED66EF294F28ED58EB4
:1003180050C0F4FF4FC0F3FF4EC0DAFF4DC0D9FF05
:100328006B921100D398D38AD38CD390D392C1689F
:10033800070EB46E000EF26E000EF16E000EF06E37
:10034800040E516E000E526E620E536E000E546E05
:10035800B9EC00F0D5EC01F0F1EC01F003EC02F09F
:10036800B4EF01F007EF00F0F60EF66E030EF76E2D
:10037800000EF86E00EE5BF010EE10F00900F5CFFD
:10038800EEFFE550E150FAE100EE01F0440EEE6AAE
:10039800E806FDE16B906B92000EF86E000196EF97
:1003A80001F09350FE0B936E9350FD0B936E935098
:1003B800FB0B936E9350F70B936E815008098A6E6E
:1003C8009450DF0B946E9450F70B946E9250DF0BA1
:1003D800926E9250EF0B926E1200D59CD59CD59AD6
:1003E800D598D586D580D582D584D58E12000100C2
:1003F8000102000000007E60607C60607E07F28E73
:0E040800F28ED08EF28CF28CF28AF184120009
:020000040020DA
:08000000FFFFFFFFFFFFFFFF00
:020000040030CA
:0E000000FF021F1EFF8181FF0FC00FE00F40A7
:00000001FF
