:020000040000FA
:0400000007EF00F016
:10000800298287ED01F0D1EF01F017501810D8B40C
:1000180010EF00F012EF00F0E8EF00F09450DF0B63
:10002800946E94501009946E9450F70B946E9250FD
:10003800DF0B926EC69A98EF00F0C694C694C692EB
:10004800C690C5EF00F0C694C694C692C680C5EFA8
:1000580000F0C694C694C682C690C5EF00F0C69458
:10006800C694C682C680C5EF00F020EE03F0175094
:10007800D9261850DA22DECF19F0DECF1AF0DECFFB
:100088001BF0DECF1CF01C50000AD8B468EF00F05B
:10009800C5EF00F01A50000AD8B455EF00F0C5EFCC
:1000A80000F01950000AD8B433EF00F0010AD8B4B0
:1000B8002DEF00F0030AD8B427EF00F0010AD8B4F6
:1000C80021EF00F0C5EF00F01B50000AD8B44EEF46
:1000D80000F0C5EF00F0C694C684C692C690C5EF7E
:1000E80000F0C694C684C692C680C5EF00F020EE24
:1000F80002F01750D9261850DA22DF50196E1A6A02
:100108001A50000AD8B48BEF00F0C5EF00F0195070
:10011800000AD8B46FEF00F0010AD8B475EF00F008
:10012800C5EF00F096EF00F017C0D9FF18C0DAFF4E
:10013800DF50196E1A6A1A50000AD8B4A6EF00F0F8
:1001480096EF00F01950000AD8B47BEF00F0010ACE
:10015800D8B439EF00F096EF00F0C698C78CC79E68
:10016800EAEF00F0C698C79CC78EEAEF00F0C68891
:10017800C78CC79EEAEF00F0C688C79CC78EEAEF17
:1001880000F020EE01F01750D9261850DA22DF507F
:10019800196E1A6A1A50000AD8B4D5EF00F0EAEFBF
:1001A80000F01950000AD8B4B1EF00F0010AD8B431
:1001B800B6EF00F0030AD8B4BBEF00F0010AD8B4D8
:1001C800C0EF00F0EAEF00F0E8EF00F0120010C016
:1001D800D9FF11C0DAFFDF50146E59EF01F08150DA
:1001E80001098A6E8150FD0B8A6E8150FB0B8A6E65
:1001F800142A10C0D9FF11C0DAFF14C0DFFF86EF40
:1002080001F08150FE0B8A6E815002098A6EF9EF67
:1002180000F0815001098A6E815002098A6EF9EF57
:1002280000F08150FE0B8A6E8150FD0B8A6E815062
:1002380004098A6EFCEF00F0815001098A6E815032
:10024800FD0B8A6E815004098A6EFCEF00F0815024
:10025800FE0B8A6E815002098A6E815004098A6EEB
:10026800142A10C0D9FF11C0DAFF14C0DFFF815073
:1002780001098A6E815002098A6E815004098A6ECA
:10028800FCEF00F08150FE0B8A6E8150FD0B8A6EE8
:100298008150FB0B8A6E10C0D9FF11C0DAFF000E27
:1002A800DF6E86EF01F057EF01F01450126E136AFB
:1002B8001350000AD8B463EF01F057EF01F0125061
:1002C800000AD8B4F3EF00F0010AD8B405EF01F042
:1002D800030AD8B40DEF01F0010AD8B415EF01F004
:1002E800070AD8B420EF01F0010AD8B42BEF01F0C7
:1002F800030AD8B43BEF01F0010AD8B446EF01F085
:1003080057EF01F012000600D9CF15F0DACF16F03A
:10031800F2A491EF01F093EF01F0AAEF01F0F29E41
:10032800D59E280E106E000E116EEBEC00F0010E3B
:10033800106E000E116E28C012F0EEEC01F0F60EF1
:10034800D76E3C0ED66EF294F28ED58E16C0DAFFBA
:1003580015C0D9FF29921100D398D38AD38CD39092
:10036800D392C168070EB46E000EF26E000EF16EE5
:10037800000EF06E05EC02F0090E176E000E186EF6
:1003880009EC00F0010E2FEC02F015EC02F01FEC66
:1003980002F0CDEF01F007EF00F04E0EF66E040EFE
:1003A800F76E000EF86E00EE01F010EE0FF0090087
:1003B800F5CFEEFFE550E150FAE100EE1DF00C0E2E
:1003C800EE6AE806FDE129902992000EF86E000118
:1003D800B0EF01F08050DF0B896EC9501250102425
:1003E800D96E000E1120DA6EDF50C96EC7A0FFEF7C
:1003F80001F001EF02F0FAEF01F080502009896E58
:1004080012009350FE0B936E9350FD0B936E935016
:10041800FB0B936E9350F70B936E815008098A6E0D
:100428001200D59CD59CD59AD598D586D580D582ED
:10043800D584D58E1200F28EF28ED08EF28CF28C8C
:10044800F28AF1841200F00FF00FF00FF00F0100A4
:0504580001020000009C
:0E045E00176E17B002D0C69A01D0C68A1200DF
:020000040020DA
:08000000FFFFFFFFFFFFFFFF00
:020000040030CA
:0E000000FF021F1EFF8181FF0FC00FE00F40A7
:00000001FF
