:020000040000FA
:0400000007EF00F016
:10000800158209ED00F02EEF00F00600F2A40FEFC4
:1000180000F011EF00F02CEF00F0D59E8AB017EF3A
:1000280000F01AEF00F0010E1BEF00F0000EFF0ABF
:10003800146E8A501418FE0B14188A6E000ED76EB0
:10004800000ED66E000ED76E000ED66EF294D58EC8
:1000580015921100060EF66E010EF76E000EF86E80
:1000680000EE01F010EE0FF00900F5CFEEFFE550BD
:10007800E150FAE1136A126A116A106A1590159232
:10008800000EF86E000149EF00F0D398D38AD38CA4
:10009800D390D392C168070EB46E000EF26E000EB4
:1000A800F16E000EF06E61EC00F071EC00F07BEC8C
:1000B80000F05DEF00F007EF00F09350FE0B936E39
:1000C8009350FD0B936E9350FB0B936E9350F70B6D
:1000D800936E815008098A6E1200D58CD59CD59AEA
:1000E800D598D586D590D592D594D58E1200F28E16
:1000F800F28ED08EF28CF28CF28AF1841200FF819B
:0D010800E79981BD81FF01000102000000A8
:020000040020DA
:08000000FFFFFFFFFFFFFFFF00
:020000040030CA
:0E000000FF021F1EFF8181FF0FC00FE00F40A7
:00000001FF
