:020000040000FA
:0400000007EF00F016
:100008006C82A1ED01F0FFEF01F045C0D9FF46C0B9
:10001800DAFFDF504C6E47C0D9FF48C0DAFFDF5027
:100028004B6E7FEF00F0815001098A6E8150FD0B05
:100038008A6E8150FB0B8A6E4C2A45C0D9FF46C098
:10004800DAFF4CC0DFFFACEF00F08150FE0B8A6E88
:10005800815002098A6E1DEF00F0815001098A6EF5
:10006800815002098A6E1DEF00F08150FE0B8A6EE6
:100078008150FD0B8A6E815004098A6E20EF00F0D2
:10008800815001098A6E8150FD0B8A6E81500409E6
:100098008A6E20EF00F08150FE0B8A6E81500209B3
:1000A8008A6E815004098A6E20EF00F081500109A0
:1000B8008A6E815002098A6E815004098A6E20EF87
:1000C80000F08150FE0B8A6E8150FD0B8A6E8150C4
:1000D800FB0B8A6E45C0D9FF46C0DAFF000EDF6E03
:1000E80047C0D9FF48C0DAFF4BC0DFFF4B06ACEF73
:1000F80000F07DEF00F04C50496E4A6A4A50000A01
:10010800D8B489EF00F07DEF00F04950000AD8B468
:1001180017EF00F0010AD8B429EF00F0030AD8B4A9
:1001280031EF00F0010AD8B439EF00F0070AD8B46B
:1001380044EF00F0010AD8B44FEF00F0030AD8B436
:100148005AEF00F0010AD8B465EF00F07DEF00F037
:100158001200070E4D6E8050EF0B896E80502009FB
:10016800896E00D08050DF0B896E80501009896E2F
:10017800070E4960C2EF00F0C4EF00F004EF01F091
:10018800F9EF00F047C0D9FF48C0DAFFDF504A6EE8
:100198004A50080D45C04BF046C04CF0F3504B2672
:1001A800F4504C224D504B24D96E000E4C20DA6E80
:1001B800DF50D8B4E2EF00F0E4EF00F0F0EF00F029
:1001C800825020098B6E825008098B6E00D08250B5
:1001D800F70B8B6EF8EF00F08250DF0B8B6E8250BE
:1001E80008098B6EEAEF00F04D0649504D5CD8B017
:1001F80000EF01F002EF01F0C6EF00F036EF01F07A
:1002080047C0D9FF48C0DAFFDF504A6E4A50080D90
:1002180045C04BF046C04CF0F3504B26F4504C22EE
:1002280049504B24D96E000E4C20DA6EDF50D8B4FA
:1002380020EF01F022EF01F02EEF01F082502009AB
:100248008B6E825008098B6E00D08250F70B8B6E34
:1002580036EF01F08250DF0B8B6E825008098B6EEF
:1002680028EF01F080502009896E00D08050DF0B04
:10027800896E1200000E5B6E010E596E000E5B6EE9
:10028800000E5A6E070E5A644CEF01F04EEF01F063
:1002980050EF01F097EF01F05AC056F0010E576E7B
:1002A800562A59EF01F0D8905736562E57EF01F0DD
:1002B8005750596E5B505424D96E000E5520DA6E93
:1002C800DF5059140009D8B46CEF01F06EEF01F05B
:1002D80082EF01F05B50080D52C056F053C057F042
:1002E800F3505626F45057225A505624D96E000E11
:1002F8005720DA6E010EDF6E94EF01F05B50080DA7
:1003080052C056F053C057F0F3505626F4505722B7
:100318005A505624D96E000E5720DA6E000EDF6E42
:100328005A2A46EF01F05B2A070E5B649EEF01F044
:10033800A0EF01F044EF01F012000600D9CF4EF013
:10034800DACF4FF0F3CF50F0F4CF51F0F2A4AFEF83
:1003580001F0B1EF01F0D0EF01F0F29ED59E440E0E
:10036800456E000E466E6B0E476E000E486E09EC29
:1003780000F0040E456E000E466E440E476E000EE9
:10038800486E6BC049F0ADEC00F0F60ED76E3C0E2F
:10039800D66EF294F28ED58E51C0F4FF50C0F3FFA2
:1003A8004FC0DAFF4EC0D9FF6C921100D398D38AA0
:1003B800D38CD390D392C168070EB46E000EF26E40
:1003C800000EF16E000EF06E040E526E000E536EAB
:1003D800630E546E000E556E3EEC01F01CEC02F0FC
:1003E80038EC02F0010E52EC02F04AEC02F0FBEF9E
:1003F80001F007EF00F0840EF66E040EF76E000EA3
:10040800F86E00EE5CF010EE10F00900F5CFEEFF8C
:10041800E550E150FAE100EE01F0440EEE6AE8061C
:10042800FDE16C906C92000EF86E0001DAEF01F0BD
:100438009350FE0B936E9350FD0B936E9350FB0BF2
:10044800936E9350F70B936E815008098A6E9450FF
:10045800DF0B946E9450F70B946E9250DF0B926EF4
:100468009250EF0B926E1200D59CD59CD59AD598D8
:10047800D586D580D582D584D58E1200010001029B
:10048800000000FFFFFFFFFFFFFFFF07F28EF28E65
:10049800D08EF28CF28CF28AF1841200526E52B035
:0A04A80002D0D59E01D0D58E1200BF
:020000040020DA
:08000000FFFFFFFFFFFFFFFF00
:020000040030CA
:0E000000FF021F1EFF8181FF0FC00FE00F40A7
:00000001FF
